{
  "_format": "hh-sol-artifact-1",
  "contractName": "DocumentRegistry",
  "sourceName": "contracts/DocumentRegistry.sol",
  "abi": [
    {
      "inputs": [
        {
          "internalType": "address",
          "name": "owner_",
          "type": "address"
        }
      ],
      "stateMutability": "nonpayable",
      "type": "constructor"
    },
    {
      "inputs": [
        {
          "internalType": "address",
          "name": "owner",
          "type": "address"
        }
      ],
      "name": "OwnableInvalidOwner",
      "type": "error"
    },
    {
      "inputs": [
        {
          "internalType": "address",
          "name": "account",
          "type": "address"
        }
      ],
      "name": "OwnableUnauthorizedAccount",
      "type": "error"
    },
    {
      "anonymous": false,
      "inputs": [
        {
          "indexed": true,
          "internalType": "bytes32",
          "name": "id",
          "type": "bytes32"
        },
        {
          "indexed": true,
          "internalType": "address",
          "name": "owner",
          "type": "address"
        },
        {
          "indexed": false,
          "internalType": "uint8",
          "name": "docType",
          "type": "uint8"
        },
        {
          "indexed": false,
          "internalType": "string",
          "name": "cid",
          "type": "string"
        },
        {
          "indexed": false,
          "internalType": "bytes32",
          "name": "fileHash",
          "type": "bytes32"
        }
      ],
      "name": "DocumentAdded",
      "type": "event"
    },
    {
      "anonymous": false,
      "inputs": [
        {
          "indexed": true,
          "internalType": "bytes32",
          "name": "id",
          "type": "bytes32"
        },
        {
          "indexed": true,
          "internalType": "address",
          "name": "owner",
          "type": "address"
        }
      ],
      "name": "DocumentRevoked",
      "type": "event"
    },
    {
      "anonymous": false,
      "inputs": [
        {
          "indexed": true,
          "internalType": "address",
          "name": "previousOwner",
          "type": "address"
        },
        {
          "indexed": true,
          "internalType": "address",
          "name": "newOwner",
          "type": "address"
        }
      ],
      "name": "OwnershipTransferred",
      "type": "event"
    },
    {
      "inputs": [
        {
          "internalType": "uint8",
          "name": "docType",
          "type": "uint8"
        },
        {
          "internalType": "string",
          "name": "cid",
          "type": "string"
        },
        {
          "internalType": "bytes32",
          "name": "fileHash",
          "type": "bytes32"
        }
      ],
      "name": "addDocument",
      "outputs": [
        {
          "internalType": "bytes32",
          "name": "id",
          "type": "bytes32"
        }
      ],
      "stateMutability": "nonpayable",
      "type": "function"
    },
    {
      "inputs": [
        {
          "internalType": "address",
          "name": "",
          "type": "address"
        },
        {
          "internalType": "uint256",
          "name": "",
          "type": "uint256"
        }
      ],
      "name": "byOwner",
      "outputs": [
        {
          "internalType": "bytes32",
          "name": "",
          "type": "bytes32"
        }
      ],
      "stateMutability": "view",
      "type": "function"
    },
    {
      "inputs": [
        {
          "internalType": "bytes32",
          "name": "",
          "type": "bytes32"
        }
      ],
      "name": "docs",
      "outputs": [
        {
          "internalType": "address",
          "name": "owner",
          "type": "address"
        },
        {
          "internalType": "uint8",
          "name": "docType",
          "type": "uint8"
        },
        {
          "internalType": "string",
          "name": "cid",
          "type": "string"
        },
        {
          "internalType": "bytes32",
          "name": "fileHash",
          "type": "bytes32"
        },
        {
          "internalType": "uint64",
          "name": "createdAt",
          "type": "uint64"
        },
        {
          "internalType": "bool",
          "name": "active",
          "type": "bool"
        }
      ],
      "stateMutability": "view",
      "type": "function"
    },
    {
      "inputs": [
        {
          "internalType": "bytes32",
          "name": "id",
          "type": "bytes32"
        }
      ],
      "name": "get",
      "outputs": [
        {
          "components": [
            {
              "internalType": "address",
              "name": "owner",
              "type": "address"
            },
            {
              "internalType": "uint8",
              "name": "docType",
              "type": "uint8"
            },
            {
              "internalType": "string",
              "name": "cid",
              "type": "string"
            },
            {
              "internalType": "bytes32",
              "name": "fileHash",
              "type": "bytes32"
            },
            {
              "internalType": "uint64",
              "name": "createdAt",
              "type": "uint64"
            },
            {
              "internalType": "bool",
              "name": "active",
              "type": "bool"
            }
          ],
          "internalType": "struct DocumentRegistry.Doc",
          "name": "",
          "type": "tuple"
        }
      ],
      "stateMutability": "view",
      "type": "function"
    },
    {
      "inputs": [
        {
          "internalType": "address",
          "name": "owner",
          "type": "address"
        }
      ],
      "name": "listIds",
      "outputs": [
        {
          "internalType": "bytes32[]",
          "name": "",
          "type": "bytes32[]"
        }
      ],
      "stateMutability": "view",
      "type": "function"
    },
    {
      "inputs": [],
      "name": "owner",
      "outputs": [
        {
          "internalType": "address",
          "name": "",
          "type": "address"
        }
      ],
      "stateMutability": "view",
      "type": "function"
    },
    {
      "inputs": [],
      "name": "renounceOwnership",
      "outputs": [],
      "stateMutability": "nonpayable",
      "type": "function"
    },
    {
      "inputs": [
        {
          "internalType": "bytes32",
          "name": "id",
          "type": "bytes32"
        }
      ],
      "name": "revoke",
      "outputs": [],
      "stateMutability": "nonpayable",
      "type": "function"
    },
    {
      "inputs": [
        {
          "internalType": "address",
          "name": "newOwner",
          "type": "address"
        }
      ],
      "name": "transferOwnership",
      "outputs": [],
      "stateMutability": "nonpayable",
      "type": "function"
    }
  ],
  "bytecode": "0x60806040523480156200001157600080fd5b5060405162001b9738038062001b978339818101604052810190620000379190620001f4565b80600073ffffffffffffffffffffffffffffffffffffffff168173ffffffffffffffffffffffffffffffffffffffff1603620000ad5760006040517f1e4fbdf7000000000000000000000000000000000000000000000000000000008152600401620000a4919062000237565b60405180910390fd5b620000be81620000c660201b60201c565b505062000254565b60008060009054906101000a900473ffffffffffffffffffffffffffffffffffffffff169050816000806101000a81548173ffffffffffffffffffffffffffffffffffffffff021916908373ffffffffffffffffffffffffffffffffffffffff1602179055508173ffffffffffffffffffffffffffffffffffffffff168173ffffffffffffffffffffffffffffffffffffffff167f8be0079c531659141344cd1fd0a4f28419497f9722a3daafe3b4186f6b6457e060405160405180910390a35050565b600080fd5b600073ffffffffffffffffffffffffffffffffffffffff82169050919050565b6000620001bc826200018f565b9050919050565b620001ce81620001af565b8114620001da57600080fd5b50565b600081519050620001ee81620001c3565b92915050565b6000602082840312156200020d576200020c6200018a565b5b60006200021d84828501620001dd565b91505092915050565b6200023181620001af565b82525050565b60006020820190506200024e600083018462000226565b92915050565b61193380620002646000396000f3fe608060405234801561001057600080fd5b50600436106100935760003560e01c80638da5cb5b116100665780638da5cb5b146101375780638eaa6ac014610155578063b75c7dc614610185578063c82fcef0146101a1578063f2fde38b146101d157610093565b806307ccc9a0146100985780630a4a26c8146100c85780636fca1744146100f8578063715018a61461012d575b600080fd5b6100b260048036038101906100ad9190610e0f565b6101ed565b6040516100bf9190610e92565b60405180910390f35b6100e260048036038101906100dd9190610f0b565b61052d565b6040516100ef9190610ff6565b60405180910390f35b610112600480360381019061010d9190611018565b6105c4565b60405161012496959493929190611131565b60405180910390f35b6101356106d6565b005b61013f6106ea565b60405161014c9190611199565b60405180910390f35b61016f600480360381019061016a9190611018565b610713565b60405161017c91906112c3565b60405180910390f35b61019f600480360381019061019a9190611018565b61089c565b005b6101bb60048036038101906101b6919061131b565b610a8e565b6040516101c89190610e92565b60405180910390f35b6101eb60048036038101906101e69190610f0b565b610abf565b005b600061023f338686868080601f016020809104026020016040519081016040528093929190818152602001838380828437600081840152601f19601f8201169050808301925050505050505085610b45565b9050600073ffffffffffffffffffffffffffffffffffffffff166001600083815260200190815260200160002060000160009054906101000a900473ffffffffffffffffffffffffffffffffffffffff1673ffffffffffffffffffffffffffffffffffffffff16146102e6576040517f08c379a00000000000000000000000000000000000000000000000000000000081526004016102dd906113a7565b60405180910390fd5b6040518060c001604052803373ffffffffffffffffffffffffffffffffffffffff1681526020018660ff16815260200185858080601f016020809104026020016040519081016040528093929190818152602001838380828437600081840152601f19601f8201169050808301925050505050505081526020018381526020014267ffffffffffffffff168152602001600115158152506001600083815260200190815260200160002060008201518160000160006101000a81548173ffffffffffffffffffffffffffffffffffffffff021916908373ffffffffffffffffffffffffffffffffffffffff16021790555060208201518160000160146101000a81548160ff021916908360ff160217905550604082015181600101908161040d9190611602565b506060820151816002015560808201518160030160006101000a81548167ffffffffffffffff021916908367ffffffffffffffff16021790555060a08201518160030160086101000a81548160ff021916908315150217905550905050600260003373ffffffffffffffffffffffffffffffffffffffff1673ffffffffffffffffffffffffffffffffffffffff1681526020019081526020016000208190806001815401808255809150506001900390600052602060002001600090919091909150553373ffffffffffffffffffffffffffffffffffffffff16817f486ebc7edea1919f02afd904f9c05d7e48e17acbecce6fa8c00a900128e489b98787878760405161051d9493929190611710565b60405180910390a3949350505050565b6060600260008373ffffffffffffffffffffffffffffffffffffffff1673ffffffffffffffffffffffffffffffffffffffff1681526020019081526020016000208054806020026020016040519081016040528092919081815260200182805480156105b857602002820191906000526020600020905b8154815260200190600101908083116105a4575b50505050509050919050565b60016020528060005260406000206000915090508060000160009054906101000a900473ffffffffffffffffffffffffffffffffffffffff16908060000160149054906101000a900460ff169080600101805461062090611425565b80601f016020809104026020016040519081016040528092919081815260200182805461064c90611425565b80156106995780601f1061066e57610100808354040283529160200191610699565b820191906000526020600020905b81548152906001019060200180831161067c57829003601f168201915b5050505050908060020154908060030160009054906101000a900467ffffffffffffffff16908060030160089054906101000a900460ff16905086565b6106de610b80565b6106e86000610c07565b565b60008060009054906101000a900473ffffffffffffffffffffffffffffffffffffffff16905090565b61071b610cd3565b600160008381526020019081526020016000206040518060c00160405290816000820160009054906101000a900473ffffffffffffffffffffffffffffffffffffffff1673ffffffffffffffffffffffffffffffffffffffff1673ffffffffffffffffffffffffffffffffffffffff1681526020016000820160149054906101000a900460ff1660ff1660ff1681526020016001820180546107bc90611425565b80601f01602080910402602001604051908101604052809291908181526020018280546107e890611425565b80156108355780601f1061080a57610100808354040283529160200191610835565b820191906000526020600020905b81548152906001019060200180831161081857829003601f168201915b50505050508152602001600282015481526020016003820160009054906101000a900467ffffffffffffffff1667ffffffffffffffff1667ffffffffffffffff1681526020016003820160089054906101000a900460ff1615151515815250509050919050565b6000600160008381526020019081526020016000209050600073ffffffffffffffffffffffffffffffffffffffff168160000160009054906101000a900473ffffffffffffffffffffffffffffffffffffffff1673ffffffffffffffffffffffffffffffffffffffff1603610946576040517f08c379a000000000000000000000000000000000000000000000000000000000815260040161093d9061179c565b60405180910390fd5b3373ffffffffffffffffffffffffffffffffffffffff168160000160009054906101000a900473ffffffffffffffffffffffffffffffffffffffff1673ffffffffffffffffffffffffffffffffffffffff16146109d8576040517f08c379a00000000000000000000000000000000000000000000000000000000081526004016109cf90611808565b60405180910390fd5b8060030160089054906101000a900460ff16610a29576040517f08c379a0000000000000000000000000000000000000000000000000000000008152600401610a2090611874565b60405180910390fd5b60008160030160086101000a81548160ff0219169083151502179055503373ffffffffffffffffffffffffffffffffffffffff16827f0a7643bfbd115d98595cc7bd15944172c7ef0e4a7f48dcaf676dec4b74be936760405160405180910390a35050565b60026020528160005260406000208181548110610aaa57600080fd5b90600052602060002001600091509150505481565b610ac7610b80565b600073ffffffffffffffffffffffffffffffffffffffff168173ffffffffffffffffffffffffffffffffffffffff1603610b395760006040517f1e4fbdf7000000000000000000000000000000000000000000000000000000008152600401610b309190611199565b60405180910390fd5b610b4281610c07565b50565b60008484848442604051602001610b609594939291906118a3565b604051602081830303815290604052805190602001209050949350505050565b610b88610ccb565b73ffffffffffffffffffffffffffffffffffffffff16610ba66106ea565b73ffffffffffffffffffffffffffffffffffffffff1614610c0557610bc9610ccb565b6040517f118cdaa7000000000000000000000000000000000000000000000000000000008152600401610bfc9190611199565b60405180910390fd5b565b60008060009054906101000a900473ffffffffffffffffffffffffffffffffffffffff169050816000806101000a81548173ffffffffffffffffffffffffffffffffffffffff021916908373ffffffffffffffffffffffffffffffffffffffff1602179055508173ffffffffffffffffffffffffffffffffffffffff168173ffffffffffffffffffffffffffffffffffffffff167f8be0079c531659141344cd1fd0a4f28419497f9722a3daafe3b4186f6b6457e060405160405180910390a35050565b600033905090565b6040518060c00160405280600073ffffffffffffffffffffffffffffffffffffffff168152602001600060ff1681526020016060815260200160008019168152602001600067ffffffffffffffff1681526020016000151581525090565b600080fd5b600080fd5b600060ff82169050919050565b610d5181610d3b565b8114610d5c57600080fd5b50565b600081359050610d6e81610d48565b92915050565b600080fd5b600080fd5b600080fd5b60008083601f840112610d9957610d98610d74565b5b8235905067ffffffffffffffff811115610db657610db5610d79565b5b602083019150836001820283011115610dd257610dd1610d7e565b5b9250929050565b6000819050919050565b610dec81610dd9565b8114610df757600080fd5b50565b600081359050610e0981610de3565b92915050565b60008060008060608587031215610e2957610e28610d31565b5b6000610e3787828801610d5f565b945050602085013567ffffffffffffffff811115610e5857610e57610d36565b5b610e6487828801610d83565b93509350506040610e7787828801610dfa565b91505092959194509250565b610e8c81610dd9565b82525050565b6000602082019050610ea76000830184610e83565b92915050565b600073ffffffffffffffffffffffffffffffffffffffff82169050919050565b6000610ed882610ead565b9050919050565b610ee881610ecd565b8114610ef357600080fd5b50565b600081359050610f0581610edf565b92915050565b600060208284031215610f2157610f20610d31565b5b6000610f2f84828501610ef6565b91505092915050565b600081519050919050565b600082825260208201905092915050565b6000819050602082019050919050565b610f6d81610dd9565b82525050565b6000610f7f8383610f64565b60208301905092915050565b6000602082019050919050565b6000610fa382610f38565b610fad8185610f43565b9350610fb883610f54565b8060005b83811015610fe9578151610fd08882610f73565b9750610fdb83610f8b565b925050600181019050610fbc565b5085935050505092915050565b600060208201905081810360008301526110108184610f98565b905092915050565b60006020828403121561102e5761102d610d31565b5b600061103c84828501610dfa565b91505092915050565b61104e81610ecd565b82525050565b61105d81610d3b565b82525050565b600081519050919050565b600082825260208201905092915050565b60005b8381101561109d578082015181840152602081019050611082565b60008484015250505050565b6000601f19601f8301169050919050565b60006110c582611063565b6110cf818561106e565b93506110df81856020860161107f565b6110e8816110a9565b840191505092915050565b600067ffffffffffffffff82169050919050565b611110816110f3565b82525050565b60008115159050919050565b61112b81611116565b82525050565b600060c0820190506111466000830189611045565b6111536020830188611054565b818103604083015261116581876110ba565b90506111746060830186610e83565b6111816080830185611107565b61118e60a0830184611122565b979650505050505050565b60006020820190506111ae6000830184611045565b92915050565b6111bd81610ecd565b82525050565b6111cc81610d3b565b82525050565b600082825260208201905092915050565b60006111ee82611063565b6111f881856111d2565b935061120881856020860161107f565b611211816110a9565b840191505092915050565b611225816110f3565b82525050565b61123481611116565b82525050565b600060c08301600083015161125260008601826111b4565b50602083015161126560208601826111c3565b506040830151848203604086015261127d82826111e3565b91505060608301516112926060860182610f64565b5060808301516112a5608086018261121c565b5060a08301516112b860a086018261122b565b508091505092915050565b600060208201905081810360008301526112dd818461123a565b905092915050565b6000819050919050565b6112f8816112e5565b811461130357600080fd5b50565b600081359050611315816112ef565b92915050565b6000806040838503121561133257611331610d31565b5b600061134085828601610ef6565b925050602061135185828601611306565b9150509250929050565b7f6578697374730000000000000000000000000000000000000000000000000000600082015250565b600061139160068361106e565b915061139c8261135b565b602082019050919050565b600060208201905081810360008301526113c081611384565b9050919050565b7f4e487b7100000000000000000000000000000000000000000000000000000000600052604160045260246000fd5b7f4e487b7100000000000000000000000000000000000000000000000000000000600052602260045260246000fd5b6000600282049050600182168061143d57607f821691505b6020821081036114505761144f6113f6565b5b50919050565b60008190508160005260206000209050919050565b60006020601f8301049050919050565b600082821b905092915050565b6000600883026114b87fffffffffffffffffffffffffffffffffffffffffffffffffffffffffffffffff8261147b565b6114c2868361147b565b95508019841693508086168417925050509392505050565b6000819050919050565b60006114ff6114fa6114f5846112e5565b6114da565b6112e5565b9050919050565b6000819050919050565b611519836114e4565b61152d61152582611506565b848454611488565b825550505050565b600090565b611542611535565b61154d818484611510565b505050565b5b818110156115715761156660008261153a565b600181019050611553565b5050565b601f8211156115b65761158781611456565b6115908461146b565b8101602085101561159f578190505b6115b36115ab8561146b565b830182611552565b50505b505050565b600082821c905092915050565b60006115d9600019846008026115bb565b1980831691505092915050565b60006115f283836115c8565b9150826002028217905092915050565b61160b82611063565b67ffffffffffffffff811115611624576116236113c7565b5b61162e8254611425565b611639828285611575565b600060209050601f83116001811461166c576000841561165a578287015190505b61166485826115e6565b8655506116cc565b601f19841661167a86611456565b60005b828110156116a25784890151825560018201915060208501945060208101905061167d565b868310156116bf57848901516116bb601f8916826115c8565b8355505b6001600288020188555050505b505050505050565b82818337600083830152505050565b60006116ef838561106e565b93506116fc8385846116d4565b611705836110a9565b840190509392505050565b60006060820190506117256000830187611054565b81810360208301526117388185876116e3565b90506117476040830184610e83565b95945050505050565b7f6e6f7420666f756e640000000000000000000000000000000000000000000000600082015250565b600061178660098361106e565b915061179182611750565b602082019050919050565b600060208201905081810360008301526117b581611779565b9050919050565b7f6e6f74206f776e65720000000000000000000000000000000000000000000000600082015250565b60006117f260098361106e565b91506117fd826117bc565b602082019050919050565b60006020820190508181036000830152611821816117e5565b9050919050565b7f616c7265616479207265766f6b65640000000000000000000000000000000000600082015250565b600061185e600f8361106e565b915061186982611828565b602082019050919050565b6000602082019050818103600083015261188d81611851565b9050919050565b61189d816112e5565b82525050565b600060a0820190506118b86000830188611045565b6118c56020830187611054565b81810360408301526118d781866110ba565b90506118e66060830185610e83565b6118f36080830184611894565b969550505050505056fea2646970667358221220930fd89b207c36153a93c117355e47c92bbd940b5c88b7148de12b185d6d50dd64736f6c63430008180033",
  "linkReferences": {},
  "deployedLinkReferences": {}
}