{
  "_format": "hh-sol-artifact-1",
  "contractName": "DocumentRegistry",
  "sourceName": "contracts/DocumentRegistry.sol",
  "abi": [
    {
      "inputs": [
        {
          "internalType": "address",
          "name": "owner_",
          "type": "address"
        }
      ],
      "stateMutability": "nonpayable",
      "type": "constructor"
    },
    {
      "inputs": [
        {
          "internalType": "address",
          "name": "owner",
          "type": "address"
        }
      ],
      "name": "OwnableInvalidOwner",
      "type": "error"
    },
    {
      "inputs": [
        {
          "internalType": "address",
          "name": "account",
          "type": "address"
        }
      ],
      "name": "OwnableUnauthorizedAccount",
      "type": "error"
    },
    {
      "anonymous": false,
      "inputs": [
        {
          "indexed": true,
          "internalType": "bytes32",
          "name": "id",
          "type": "bytes32"
        },
        {
          "indexed": true,
          "internalType": "address",
          "name": "owner",
          "type": "address"
        },
        {
          "indexed": false,
          "internalType": "uint8",
          "name": "docType",
          "type": "uint8"
        },
        {
          "indexed": false,
          "internalType": "string",
          "name": "cid",
          "type": "string"
        },
        {
          "indexed": false,
          "internalType": "bytes32",
          "name": "fileHash",
          "type": "bytes32"
        }
      ],
      "name": "DocumentAdded",
      "type": "event"
    },
    {
      "anonymous": false,
      "inputs": [
        {
          "indexed": true,
          "internalType": "bytes32",
          "name": "id",
          "type": "bytes32"
        },
        {
          "indexed": true,
          "internalType": "address",
          "name": "owner",
          "type": "address"
        }
      ],
      "name": "DocumentRevoked",
      "type": "event"
    },
    {
      "anonymous": false,
      "inputs": [
        {
          "indexed": true,
          "internalType": "address",
          "name": "previousOwner",
          "type": "address"
        },
        {
          "indexed": true,
          "internalType": "address",
          "name": "newOwner",
          "type": "address"
        }
      ],
      "name": "OwnershipTransferred",
      "type": "event"
    },
    {
      "inputs": [
        {
          "internalType": "uint8",
          "name": "docType",
          "type": "uint8"
        },
        {
          "internalType": "string",
          "name": "cid",
          "type": "string"
        },
        {
          "internalType": "bytes32",
          "name": "fileHash",
          "type": "bytes32"
        }
      ],
      "name": "addDocument",
      "outputs": [
        {
          "internalType": "bytes32",
          "name": "id",
          "type": "bytes32"
        }
      ],
      "stateMutability": "nonpayable",
      "type": "function"
    },
    {
      "inputs": [
        {
          "internalType": "address",
          "name": "",
          "type": "address"
        },
        {
          "internalType": "uint256",
          "name": "",
          "type": "uint256"
        }
      ],
      "name": "byOwner",
      "outputs": [
        {
          "internalType": "bytes32",
          "name": "",
          "type": "bytes32"
        }
      ],
      "stateMutability": "view",
      "type": "function"
    },
    {
      "inputs": [
        {
          "internalType": "bytes32",
          "name": "",
          "type": "bytes32"
        }
      ],
      "name": "docs",
      "outputs": [
        {
          "internalType": "address",
          "name": "owner",
          "type": "address"
        },
        {
          "internalType": "uint8",
          "name": "docType",
          "type": "uint8"
        },
        {
          "internalType": "string",
          "name": "cid",
          "type": "string"
        },
        {
          "internalType": "bytes32",
          "name": "fileHash",
          "type": "bytes32"
        },
        {
          "internalType": "uint64",
          "name": "createdAt",
          "type": "uint64"
        },
        {
          "internalType": "bool",
          "name": "active",
          "type": "bool"
        }
      ],
      "stateMutability": "view",
      "type": "function"
    },
    {
      "inputs": [
        {
          "internalType": "bytes32",
          "name": "id",
          "type": "bytes32"
        }
      ],
      "name": "get",
      "outputs": [
        {
          "components": [
            {
              "internalType": "address",
              "name": "owner",
              "type": "address"
            },
            {
              "internalType": "uint8",
              "name": "docType",
              "type": "uint8"
            },
            {
              "internalType": "string",
              "name": "cid",
              "type": "string"
            },
            {
              "internalType": "bytes32",
              "name": "fileHash",
              "type": "bytes32"
            },
            {
              "internalType": "uint64",
              "name": "createdAt",
              "type": "uint64"
            },
            {
              "internalType": "bool",
              "name": "active",
              "type": "bool"
            }
          ],
          "internalType": "struct DocumentRegistry.Doc",
          "name": "",
          "type": "tuple"
        }
      ],
      "stateMutability": "view",
      "type": "function"
    },
    {
      "inputs": [
        {
          "internalType": "address",
          "name": "owner",
          "type": "address"
        }
      ],
      "name": "listIds",
      "outputs": [
        {
          "internalType": "bytes32[]",
          "name": "",
          "type": "bytes32[]"
        }
      ],
      "stateMutability": "view",
      "type": "function"
    },
    {
      "inputs": [],
      "name": "owner",
      "outputs": [
        {
          "internalType": "address",
          "name": "",
          "type": "address"
        }
      ],
      "stateMutability": "view",
      "type": "function"
    },
    {
      "inputs": [],
      "name": "renounceOwnership",
      "outputs": [],
      "stateMutability": "nonpayable",
      "type": "function"
    },
    {
      "inputs": [
        {
          "internalType": "bytes32",
          "name": "id",
          "type": "bytes32"
        }
      ],
      "name": "revoke",
      "outputs": [],
      "stateMutability": "nonpayable",
      "type": "function"
    },
    {
      "inputs": [
        {
          "internalType": "address",
          "name": "newOwner",
          "type": "address"
        }
      ],
      "name": "transferOwnership",
      "outputs": [],
      "stateMutability": "nonpayable",
      "type": "function"
    }
  ],
  "bytecode": "0x60806040523480156200001157600080fd5b50604051620019db380380620019db8339818101604052810190620000379190620001f4565b80600073ffffffffffffffffffffffffffffffffffffffff168173ffffffffffffffffffffffffffffffffffffffff1603620000ad5760006040517f1e4fbdf7000000000000000000000000000000000000000000000000000000008152600401620000a4919062000237565b60405180910390fd5b620000be81620000c660201b60201c565b505062000254565b60008060009054906101000a900473ffffffffffffffffffffffffffffffffffffffff169050816000806101000a81548173ffffffffffffffffffffffffffffffffffffffff021916908373ffffffffffffffffffffffffffffffffffffffff1602179055508173ffffffffffffffffffffffffffffffffffffffff168173ffffffffffffffffffffffffffffffffffffffff167f8be0079c531659141344cd1fd0a4f28419497f9722a3daafe3b4186f6b6457e060405160405180910390a35050565b600080fd5b600073ffffffffffffffffffffffffffffffffffffffff82169050919050565b6000620001bc826200018f565b9050919050565b620001ce81620001af565b8114620001da57600080fd5b50565b600081519050620001ee81620001c3565b92915050565b6000602082840312156200020d576200020c6200018a565b5b60006200021d84828501620001dd565b91505092915050565b6200023181620001af565b82525050565b60006020820190506200024e600083018462000226565b92915050565b61177780620002646000396000f3fe608060405234801561001057600080fd5b50600436106100935760003560e01c80638da5cb5b116100665780638da5cb5b146101375780638eaa6ac014610155578063b75c7dc614610185578063c82fcef0146101a1578063f2fde38b146101d157610093565b806307ccc9a0146100985780630a4a26c8146100c85780636fca1744146100f8578063715018a61461012d575b600080fd5b6100b260048036038101906100ad9190610d2b565b6101ed565b6040516100bf9190610dae565b60405180910390f35b6100e260048036038101906100dd9190610e27565b61052d565b6040516100ef9190610f12565b60405180910390f35b610112600480360381019061010d9190610f34565b6105c4565b6040516101249695949392919061104d565b60405180910390f35b6101356106d6565b005b61013f6106ea565b60405161014c91906110b5565b60405180910390f35b61016f600480360381019061016a9190610f34565b610713565b60405161017c91906111df565b60405180910390f35b61019f600480360381019061019a9190610f34565b61089c565b005b6101bb60048036038101906101b69190611237565b6109aa565b6040516101c89190610dae565b60405180910390f35b6101eb60048036038101906101e69190610e27565b6109db565b005b600061023f338686868080601f016020809104026020016040519081016040528093929190818152602001838380828437600081840152601f19601f8201169050808301925050505050505085610a61565b9050600073ffffffffffffffffffffffffffffffffffffffff166001600083815260200190815260200160002060000160009054906101000a900473ffffffffffffffffffffffffffffffffffffffff1673ffffffffffffffffffffffffffffffffffffffff16146102e6576040517f08c379a00000000000000000000000000000000000000000000000000000000081526004016102dd906112c3565b60405180910390fd5b6040518060c001604052803373ffffffffffffffffffffffffffffffffffffffff1681526020018660ff16815260200185858080601f016020809104026020016040519081016040528093929190818152602001838380828437600081840152601f19601f8201169050808301925050505050505081526020018381526020014267ffffffffffffffff168152602001600115158152506001600083815260200190815260200160002060008201518160000160006101000a81548173ffffffffffffffffffffffffffffffffffffffff021916908373ffffffffffffffffffffffffffffffffffffffff16021790555060208201518160000160146101000a81548160ff021916908360ff160217905550604082015181600101908161040d919061151e565b506060820151816002015560808201518160030160006101000a81548167ffffffffffffffff021916908367ffffffffffffffff16021790555060a08201518160030160086101000a81548160ff021916908315150217905550905050600260003373ffffffffffffffffffffffffffffffffffffffff1673ffffffffffffffffffffffffffffffffffffffff1681526020019081526020016000208190806001815401808255809150506001900390600052602060002001600090919091909150553373ffffffffffffffffffffffffffffffffffffffff16817f486ebc7edea1919f02afd904f9c05d7e48e17acbecce6fa8c00a900128e489b98787878760405161051d949392919061162c565b60405180910390a3949350505050565b6060600260008373ffffffffffffffffffffffffffffffffffffffff1673ffffffffffffffffffffffffffffffffffffffff1681526020019081526020016000208054806020026020016040519081016040528092919081815260200182805480156105b857602002820191906000526020600020905b8154815260200190600101908083116105a4575b50505050509050919050565b60016020528060005260406000206000915090508060000160009054906101000a900473ffffffffffffffffffffffffffffffffffffffff16908060000160149054906101000a900460ff169080600101805461062090611341565b80601f016020809104026020016040519081016040528092919081815260200182805461064c90611341565b80156106995780601f1061066e57610100808354040283529160200191610699565b820191906000526020600020905b81548152906001019060200180831161067c57829003601f168201915b5050505050908060020154908060030160009054906101000a900467ffffffffffffffff16908060030160089054906101000a900460ff16905086565b6106de610a9c565b6106e86000610b23565b565b60008060009054906101000a900473ffffffffffffffffffffffffffffffffffffffff16905090565b61071b610bef565b600160008381526020019081526020016000206040518060c00160405290816000820160009054906101000a900473ffffffffffffffffffffffffffffffffffffffff1673ffffffffffffffffffffffffffffffffffffffff1673ffffffffffffffffffffffffffffffffffffffff1681526020016000820160149054906101000a900460ff1660ff1660ff1681526020016001820180546107bc90611341565b80601f01602080910402602001604051908101604052809291908181526020018280546107e890611341565b80156108355780601f1061080a57610100808354040283529160200191610835565b820191906000526020600020905b81548152906001019060200180831161081857829003601f168201915b50505050508152602001600282015481526020016003820160009054906101000a900467ffffffffffffffff1667ffffffffffffffff1667ffffffffffffffff1681526020016003820160089054906101000a900460ff1615151515815250509050919050565b60006001600083815260200190815260200160002090503373ffffffffffffffffffffffffffffffffffffffff168160000160009054906101000a900473ffffffffffffffffffffffffffffffffffffffff1673ffffffffffffffffffffffffffffffffffffffff1614610945576040517f08c379a000000000000000000000000000000000000000000000000000000000815260040161093c906116b8565b60405180910390fd5b60008160030160086101000a81548160ff0219169083151502179055503373ffffffffffffffffffffffffffffffffffffffff16827f0a7643bfbd115d98595cc7bd15944172c7ef0e4a7f48dcaf676dec4b74be936760405160405180910390a35050565b600260205281600052604060002081815481106109c657600080fd5b90600052602060002001600091509150505481565b6109e3610a9c565b600073ffffffffffffffffffffffffffffffffffffffff168173ffffffffffffffffffffffffffffffffffffffff1603610a555760006040517f1e4fbdf7000000000000000000000000000000000000000000000000000000008152600401610a4c91906110b5565b60405180910390fd5b610a5e81610b23565b50565b60008484848442604051602001610a7c9594939291906116e7565b604051602081830303815290604052805190602001209050949350505050565b610aa4610be7565b73ffffffffffffffffffffffffffffffffffffffff16610ac26106ea565b73ffffffffffffffffffffffffffffffffffffffff1614610b2157610ae5610be7565b6040517f118cdaa7000000000000000000000000000000000000000000000000000000008152600401610b1891906110b5565b60405180910390fd5b565b60008060009054906101000a900473ffffffffffffffffffffffffffffffffffffffff169050816000806101000a81548173ffffffffffffffffffffffffffffffffffffffff021916908373ffffffffffffffffffffffffffffffffffffffff1602179055508173ffffffffffffffffffffffffffffffffffffffff168173ffffffffffffffffffffffffffffffffffffffff167f8be0079c531659141344cd1fd0a4f28419497f9722a3daafe3b4186f6b6457e060405160405180910390a35050565b600033905090565b6040518060c00160405280600073ffffffffffffffffffffffffffffffffffffffff168152602001600060ff1681526020016060815260200160008019168152602001600067ffffffffffffffff1681526020016000151581525090565b600080fd5b600080fd5b600060ff82169050919050565b610c6d81610c57565b8114610c7857600080fd5b50565b600081359050610c8a81610c64565b92915050565b600080fd5b600080fd5b600080fd5b60008083601f840112610cb557610cb4610c90565b5b8235905067ffffffffffffffff811115610cd257610cd1610c95565b5b602083019150836001820283011115610cee57610ced610c9a565b5b9250929050565b6000819050919050565b610d0881610cf5565b8114610d1357600080fd5b50565b600081359050610d2581610cff565b92915050565b60008060008060608587031215610d4557610d44610c4d565b5b6000610d5387828801610c7b565b945050602085013567ffffffffffffffff811115610d7457610d73610c52565b5b610d8087828801610c9f565b93509350506040610d9387828801610d16565b91505092959194509250565b610da881610cf5565b82525050565b6000602082019050610dc36000830184610d9f565b92915050565b600073ffffffffffffffffffffffffffffffffffffffff82169050919050565b6000610df482610dc9565b9050919050565b610e0481610de9565b8114610e0f57600080fd5b50565b600081359050610e2181610dfb565b92915050565b600060208284031215610e3d57610e3c610c4d565b5b6000610e4b84828501610e12565b91505092915050565b600081519050919050565b600082825260208201905092915050565b6000819050602082019050919050565b610e8981610cf5565b82525050565b6000610e9b8383610e80565b60208301905092915050565b6000602082019050919050565b6000610ebf82610e54565b610ec98185610e5f565b9350610ed483610e70565b8060005b83811015610f05578151610eec8882610e8f565b9750610ef783610ea7565b925050600181019050610ed8565b5085935050505092915050565b60006020820190508181036000830152610f2c8184610eb4565b905092915050565b600060208284031215610f4a57610f49610c4d565b5b6000610f5884828501610d16565b91505092915050565b610f6a81610de9565b82525050565b610f7981610c57565b82525050565b600081519050919050565b600082825260208201905092915050565b60005b83811015610fb9578082015181840152602081019050610f9e565b60008484015250505050565b6000601f19601f8301169050919050565b6000610fe182610f7f565b610feb8185610f8a565b9350610ffb818560208601610f9b565b61100481610fc5565b840191505092915050565b600067ffffffffffffffff82169050919050565b61102c8161100f565b82525050565b60008115159050919050565b61104781611032565b82525050565b600060c0820190506110626000830189610f61565b61106f6020830188610f70565b81810360408301526110818187610fd6565b90506110906060830186610d9f565b61109d6080830185611023565b6110aa60a083018461103e565b979650505050505050565b60006020820190506110ca6000830184610f61565b92915050565b6110d981610de9565b82525050565b6110e881610c57565b82525050565b600082825260208201905092915050565b600061110a82610f7f565b61111481856110ee565b9350611124818560208601610f9b565b61112d81610fc5565b840191505092915050565b6111418161100f565b82525050565b61115081611032565b82525050565b600060c08301600083015161116e60008601826110d0565b50602083015161118160208601826110df565b506040830151848203604086015261119982826110ff565b91505060608301516111ae6060860182610e80565b5060808301516111c16080860182611138565b5060a08301516111d460a0860182611147565b508091505092915050565b600060208201905081810360008301526111f98184611156565b905092915050565b6000819050919050565b61121481611201565b811461121f57600080fd5b50565b6000813590506112318161120b565b92915050565b6000806040838503121561124e5761124d610c4d565b5b600061125c85828601610e12565b925050602061126d85828601611222565b9150509250929050565b7f6578697374730000000000000000000000000000000000000000000000000000600082015250565b60006112ad600683610f8a565b91506112b882611277565b602082019050919050565b600060208201905081810360008301526112dc816112a0565b9050919050565b7f4e487b7100000000000000000000000000000000000000000000000000000000600052604160045260246000fd5b7f4e487b7100000000000000000000000000000000000000000000000000000000600052602260045260246000fd5b6000600282049050600182168061135957607f821691505b60208210810361136c5761136b611312565b5b50919050565b60008190508160005260206000209050919050565b60006020601f8301049050919050565b600082821b905092915050565b6000600883026113d47fffffffffffffffffffffffffffffffffffffffffffffffffffffffffffffffff82611397565b6113de8683611397565b95508019841693508086168417925050509392505050565b6000819050919050565b600061141b61141661141184611201565b6113f6565b611201565b9050919050565b6000819050919050565b61143583611400565b61144961144182611422565b8484546113a4565b825550505050565b600090565b61145e611451565b61146981848461142c565b505050565b5b8181101561148d57611482600082611456565b60018101905061146f565b5050565b601f8211156114d2576114a381611372565b6114ac84611387565b810160208510156114bb578190505b6114cf6114c785611387565b83018261146e565b50505b505050565b600082821c905092915050565b60006114f5600019846008026114d7565b1980831691505092915050565b600061150e83836114e4565b9150826002028217905092915050565b61152782610f7f565b67ffffffffffffffff8111156115405761153f6112e3565b5b61154a8254611341565b611555828285611491565b600060209050601f8311600181146115885760008415611576578287015190505b6115808582611502565b8655506115e8565b601f19841661159686611372565b60005b828110156115be57848901518255600182019150602085019450602081019050611599565b868310156115db57848901516115d7601f8916826114e4565b8355505b6001600288020188555050505b505050505050565b82818337600083830152505050565b600061160b8385610f8a565b93506116188385846115f0565b61162183610fc5565b840190509392505050565b60006060820190506116416000830187610f70565b81810360208301526116548185876115ff565b90506116636040830184610d9f565b95945050505050565b7f6e6f74206f776e65720000000000000000000000000000000000000000000000600082015250565b60006116a2600983610f8a565b91506116ad8261166c565b602082019050919050565b600060208201905081810360008301526116d181611695565b9050919050565b6116e181611201565b82525050565b600060a0820190506116fc6000830188610f61565b6117096020830187610f70565b818103604083015261171b8186610fd6565b905061172a6060830185610d9f565b61173760808301846116d8565b969550505050505056fea26469706673582212201d01319c845124fc1b8c7d9a8de4e96bb3a38f48adfd40f72cedf6cf431636de64736f6c63430008180033",
  "linkReferences": {},
  "deployedLinkReferences": {}
}